:1000000010C01FC07FC003C231C01BC01AC019C0BE
:1000100018C017C016C08FC214C013C012C011C0C0
:1000200010C011241FBECFE5D2E0DEBFCDBF20E05F
:10003000A0E6B0E001C01D92A637B207E1F7A8D252
:1000400086C3DECF82E3B99AC19AEFE3FCE9319728
:10005000F1F700C00000B998C198EFE3FCE93197CF
:10006000F1F700C00000815071F708951F920F92C0
:100070000FB60F9211242F933F934F935F936F937B
:100080007F938F939F93AF93BF93EF93FF9381D011
:100090008091610090916200A0916300B091640032
:1000A0000196A11DB11D8093610090936200A09301
:1000B0006300B09364006091610070916200809170
:1000C00063009091640022E330E040E050E0F9D218
:1000D000672B682B692B29F48091600088608093DE
:1000E0006000FF91EF91BF91AF919F918F917F91B0
:1000F0006F915F914F913F912F910F900FBE0F9095
:100100001F9018958F938FB78F93C99B05C08091CF
:100110006000846080936000C89B05C0809160008F
:100120008260809360008F918FBF8F9118958FEFC1
:1001300091EE24E0815090402040E1F700C00000A3
:10014000089587B1379A91E297B9EFE9FFE03197C7
:10015000F1F700C00000369A3699FECF24B135B1D0
:1001600087B940E050E060E070E381E190E0CBD2FD
:10017000C9010895809165008E3049F482E082BB08
:1001800084E080BD80E38BBFBA98C29A089586E070
:10019000F6CF88E191E681BD91BDA8950895EE273F
:1001A000E4BFFDE109948F932F93792728E08CE831
:1001B000072E769500FC78272A95D1F72F918F91FD
:1001C00008950D0E131516191A1C232526292A2CFD
:1001D0003234FF008F932F93792728E08CE8072E85
:1001E000769500FC78272A95D1F72F918F91089565
:1001F0000D0E131516191A1C232526292A2C323404
:10020000FF00C09AF894A82FB92F82B78F9380B7B8
:100210008F9383B78F9382E010BE83BF12BEB89ACC
:10022000C09826E09AE221D02A95E1F798E31DD004
:100230009CE21BD07727962F9395939523D09D9181
:1002400021D06A95E1F7972F1DD023D0C0988F91C8
:1002500083BF8F9180BF8F9182BF789408959F70E4
:10026000E0EFF1E0E90FF11D94912F9326E032E0E9
:1002700010D090FFC09890FDC09A96952A95B9F736
:100280002F9108959F93A6DF9295E9DF9F91E7DF75
:10029000089582B78A3FE8F312BE3A95D1F70895E0
:1002A000B92FA82FEE27FF2730813F93E3FF3D9121
:1002B0003193E031C9F7EEE1F3E02BE14427C5903B
:1002C000D590E590F590500C611C721C431CC52420
:1002D000D624E724F424000C111C221C331C041E19
:1002E000000C111C221C331C041E000C111C221CAF
:1002F000331C041E0C241D242E243F242601370108
:100300002A95E9F6B92FA82F1896FF27E0E1329138
:10031000E3FF3E933F913083EE23C9F708954553A1
:100320005043BE0717941B0ADB7761CFB1B29649E1
:10033000073780FF2949B57483ADC32D6FB351943E
:100340002AF05EAA5EDEA7AC3CD89BD37E6849014A
:100350005FFABC96F072B7F52E92E153B91426619C
:1003600074CD02395941033008653AAA72B1F43D9F
:100370007749A89EA92040742047A52688681AA618
:100380008B2D570180B84EC1E92D689429D0DD9896
:10039000D59A36D0D598DD9A6FEFE89421D068943D
:1003A0001FD028E2E8941CD0AA0F991F881F771F3E
:1003B000661F689415D035E83A95F1F7CD99A1609C
:1003C0002A9581F73327360F370F380F390F3A1731
:1003D00031F06EEF01C000C0772788279927089574
:1003E00038EC1EF0CD9B089502C0CD99089506D03B
:1003F0003A95B9F76DEF3F913F91EDCF0000089529
:100400003BE040E64A95F1F73A95E1F708951F92EF
:100410000F920FB60F9211242F933F934F935F9338
:100420006F937F938F939F93AF93BF93EF93FF93BC
:100430008091670081113DC086B322B712BE82FD54
:1004400049C081E08093660080917400811589F134
:10045000809174009091730096959093730090E052
:10046000880F991F821791052CF480917300806882
:1004700080937300809172008F5F80937200883048
:10048000C1F4E09175008E2F8F5F80937500F0E0CE
:1004900080917300E859FF4F8083809175008A3006
:1004A00020F0809175008093670010927300109285
:1004B0007200FF91EF91BF91AF919F918F917F91CA
:1004C0006F915F914F913F912F910F900FBE0F90C1
:1004D0001F90189580917400811551F180917400DE
:1004E00090E0880F991F8217910514F5809175008F
:1004F0008093670010927400109275001092730040
:100500001092720080916700843099F680916800A3
:10051000823479F6809169008F3459F680916A00AF
:100520008F3439F680916B00843519F638DEC1CFEF
:1005300020937400BECF1F921FB61F9211241092F9
:100540007500109273001092720010926600109263
:1005500074001F901FBE1F90189580B5846080BDE9
:100560008BB780628BBF10BE83E083BF12BE89B79A
:10057000816089BF10927500109273001092720012
:10058000109274001092670010926600789408959B
:10059000CF93DF93CDB7DEB760970FB6F894DEBF89
:1005A0000FBECDBF04B601FCFADD14BE1ABA17BAED
:1005B000E1DD84E090E0C3D08093650043DD8FEF00
:1005C00093ED20E3815090402040E1F700C000000F
:1005D000E0DDC3DF789400E010E08091600090914E
:1005E0006700892B09F456C08FEF91EE24E081500B
:1005F00090402040E1F700C00000809165008983B1
:100600000A831B838091610090916200A091630036
:10061000B09164008C839D83AE83BF8392DD888715
:100620009987809160008A878BEB8B87AEDE6C8721
:100630007D878E879F8780916700888BCE0101968A
:100640002FDECE0109962CDE60E1CE010196D9DDC8
:100650008FEF91EE24E0815090402040E1F700C000
:1006600000008FEF91EE24E0815090402040E1F7B0
:1006700000C0000060E1CE010196C3DD8FEF91EE76
:1006800024E0815090402040E1F700C000000F5F5F
:100690001F4F63DF109260008091660081119DCF33
:1006A000B998C198379885B7877E806185BF85B72F
:1006B000806285BF889585B78F7D85BFB99AC19ABD
:1006C0008CCFA1E21A2EAA1BBB1BFD010DC0AA1FD5
:1006D000BB1FEE1FFF1FA217B307E407F50720F0AB
:1006E000A21BB30BE40BF50B661F771F881F991F26
:1006F0001A9469F760957095809590959B01AC016F
:10070000BD01CF010895052E97FB16F400940FD07C
:1007100057FD05D0D6DF07FC02D046F408C050953F
:100720004095309521953F4F4F4F5F4F08959095DD
:100730008095709561957F4F8F4F9F4F0895E199F8
:10074000FECF9FBB8EBBE09A99278DB30895F89496
:02075000FFCFD9
:00000001FF
